{
  "contractName": "MultiSigWallet",
  "abi": [
    {
      "inputs": [
        {
          "internalType": "address[]",
          "name": "_owners",
          "type": "address[]"
        }
      ],
      "stateMutability": "nonpayable",
      "type": "constructor"
    },
    {
      "anonymous": false,
      "inputs": [
        {
          "indexed": true,
          "internalType": "address",
          "name": "sender",
          "type": "address"
        },
        {
          "indexed": true,
          "internalType": "uint256",
          "name": "txIndex",
          "type": "uint256"
        }
      ],
      "name": "ConfirmTransaction",
      "type": "event"
    },
    {
      "anonymous": false,
      "inputs": [
        {
          "indexed": true,
          "internalType": "address",
          "name": "sender",
          "type": "address"
        },
        {
          "indexed": false,
          "internalType": "uint256",
          "name": "amount",
          "type": "uint256"
        },
        {
          "indexed": false,
          "internalType": "uint256",
          "name": "balance",
          "type": "uint256"
        }
      ],
      "name": "Deposit",
      "type": "event"
    },
    {
      "anonymous": false,
      "inputs": [
        {
          "indexed": true,
          "internalType": "address",
          "name": "sender",
          "type": "address"
        },
        {
          "indexed": true,
          "internalType": "uint256",
          "name": "txIndex",
          "type": "uint256"
        }
      ],
      "name": "ExecuteTransaction",
      "type": "event"
    },
    {
      "anonymous": false,
      "inputs": [
        {
          "indexed": true,
          "internalType": "address",
          "name": "newOwner",
          "type": "address"
        }
      ],
      "name": "OwnerAddition",
      "type": "event"
    },
    {
      "anonymous": false,
      "inputs": [
        {
          "indexed": true,
          "internalType": "address",
          "name": "removedOwner",
          "type": "address"
        }
      ],
      "name": "OwnerRemoval",
      "type": "event"
    },
    {
      "anonymous": false,
      "inputs": [
        {
          "indexed": true,
          "internalType": "address",
          "name": "sender",
          "type": "address"
        },
        {
          "indexed": true,
          "internalType": "uint256",
          "name": "txIndex",
          "type": "uint256"
        },
        {
          "indexed": true,
          "internalType": "address",
          "name": "target",
          "type": "address"
        },
        {
          "indexed": false,
          "internalType": "uint256",
          "name": "value",
          "type": "uint256"
        },
        {
          "indexed": false,
          "internalType": "bytes",
          "name": "data",
          "type": "bytes"
        },
        {
          "indexed": false,
          "internalType": "uint256",
          "name": "numConfirmationsRequired",
          "type": "uint256"
        }
      ],
      "name": "SubmitTransaction",
      "type": "event"
    },
    {
      "inputs": [
        {
          "internalType": "address",
          "name": "",
          "type": "address"
        }
      ],
      "name": "isBlocked",
      "outputs": [
        {
          "internalType": "bool",
          "name": "",
          "type": "bool"
        }
      ],
      "stateMutability": "view",
      "type": "function"
    },
    {
      "inputs": [
        {
          "internalType": "uint256",
          "name": "",
          "type": "uint256"
        },
        {
          "internalType": "address",
          "name": "",
          "type": "address"
        }
      ],
      "name": "isConfirmed",
      "outputs": [
        {
          "internalType": "bool",
          "name": "",
          "type": "bool"
        }
      ],
      "stateMutability": "view",
      "type": "function"
    },
    {
      "inputs": [
        {
          "internalType": "address",
          "name": "",
          "type": "address"
        }
      ],
      "name": "isOwner",
      "outputs": [
        {
          "internalType": "bool",
          "name": "",
          "type": "bool"
        }
      ],
      "stateMutability": "view",
      "type": "function"
    },
    {
      "inputs": [
        {
          "internalType": "uint256",
          "name": "",
          "type": "uint256"
        }
      ],
      "name": "owners",
      "outputs": [
        {
          "internalType": "address",
          "name": "",
          "type": "address"
        }
      ],
      "stateMutability": "view",
      "type": "function"
    },
    {
      "inputs": [
        {
          "internalType": "uint256",
          "name": "",
          "type": "uint256"
        }
      ],
      "name": "transactions",
      "outputs": [
        {
          "internalType": "address",
          "name": "target",
          "type": "address"
        },
        {
          "internalType": "uint256",
          "name": "value",
          "type": "uint256"
        },
        {
          "internalType": "bytes",
          "name": "data",
          "type": "bytes"
        },
        {
          "internalType": "bool",
          "name": "executed",
          "type": "bool"
        },
        {
          "internalType": "uint256",
          "name": "numConfirmations",
          "type": "uint256"
        },
        {
          "internalType": "uint256",
          "name": "numConfirmationsRequired",
          "type": "uint256"
        }
      ],
      "stateMutability": "view",
      "type": "function"
    },
    {
      "inputs": [],
      "name": "deposit",
      "outputs": [],
      "stateMutability": "payable",
      "type": "function"
    },
    {
      "inputs": [
        {
          "internalType": "address",
          "name": "_target",
          "type": "address"
        },
        {
          "internalType": "uint256",
          "name": "_value",
          "type": "uint256"
        },
        {
          "internalType": "bytes",
          "name": "_data",
          "type": "bytes"
        },
        {
          "internalType": "uint256",
          "name": "_numConfirmationsRequired",
          "type": "uint256"
        }
      ],
      "name": "submitTransaction",
      "outputs": [],
      "stateMutability": "nonpayable",
      "type": "function"
    },
    {
      "inputs": [
        {
          "internalType": "uint256",
          "name": "_txIndex",
          "type": "uint256"
        }
      ],
      "name": "confirmTransaction",
      "outputs": [],
      "stateMutability": "nonpayable",
      "type": "function"
    },
    {
      "inputs": [
        {
          "internalType": "uint256",
          "name": "_txIndex",
          "type": "uint256"
        }
      ],
      "name": "executeTransaction",
      "outputs": [],
      "stateMutability": "nonpayable",
      "type": "function"
    },
    {
      "inputs": [
        {
          "internalType": "address",
          "name": "_owner",
          "type": "address"
        }
      ],
      "name": "addOwner",
      "outputs": [],
      "stateMutability": "nonpayable",
      "type": "function"
    },
    {
      "inputs": [
        {
          "internalType": "address",
          "name": "_owner",
          "type": "address"
        }
      ],
      "name": "removeOwner",
      "outputs": [],
      "stateMutability": "nonpayable",
      "type": "function"
    },
    {
      "inputs": [
        {
          "internalType": "address",
          "name": "_address",
          "type": "address"
        }
      ],
      "name": "blockAddress",
      "outputs": [],
      "stateMutability": "nonpayable",
      "type": "function"
    },
    {
      "inputs": [
        {
          "internalType": "address",
          "name": "_address",
          "type": "address"
        }
      ],
      "name": "unblockAddress",
      "outputs": [],
      "stateMutability": "nonpayable",
      "type": "function"
    }
  ],
  "bytecode": "0x608060405234801562000010575f80fd5b5060405162002c0f38038062002c0f8339818101604052810190620000369190620003e6565b5f8151116200007c576040517f08c379a0000000000000000000000000000000000000000000000000000000008152600401620000739062000493565b60405180910390fd5b5f5b815181101562000200575f8282815181106200009f576200009e620004b3565b5b6020026020010151905060015f8273ffffffffffffffffffffffffffffffffffffffff1673ffffffffffffffffffffffffffffffffffffffff1681526020019081526020015f205f9054906101000a900460ff161562000136576040517f08c379a00000000000000000000000000000000000000000000000000000000081526004016200012d906200052e565b60405180910390fd5b6001805f8373ffffffffffffffffffffffffffffffffffffffff1673ffffffffffffffffffffffffffffffffffffffff1681526020019081526020015f205f6101000a81548160ff0219169083151502179055505f81908060018154018082558091505060019003905f5260205f20015f9091909190916101000a81548173ffffffffffffffffffffffffffffffffffffffff021916908373ffffffffffffffffffffffffffffffffffffffff160217905550508080620001f79062000584565b9150506200007e565b5050620005d0565b5f604051905090565b5f80fd5b5f80fd5b5f80fd5b5f601f19601f8301169050919050565b7f4e487b71000000000000000000000000000000000000000000000000000000005f52604160045260245ffd5b62000265826200021d565b810181811067ffffffffffffffff821117156200028757620002866200022d565b5b80604052505050565b5f6200029b62000208565b9050620002a982826200025a565b919050565b5f67ffffffffffffffff821115620002cb57620002ca6200022d565b5b602082029050602081019050919050565b5f80fd5b5f73ffffffffffffffffffffffffffffffffffffffff82169050919050565b5f6200030b82620002e0565b9050919050565b6200031d81620002ff565b811462000328575f80fd5b50565b5f815190506200033b8162000312565b92915050565b5f620003576200035184620002ae565b62000290565b905080838252602082019050602084028301858111156200037d576200037c620002dc565b5b835b81811015620003aa57806200039588826200032b565b8452602084019350506020810190506200037f565b5050509392505050565b5f82601f830112620003cb57620003ca62000219565b5b8151620003dd84826020860162000341565b91505092915050565b5f60208284031215620003fe57620003fd62000211565b5b5f82015167ffffffffffffffff8111156200041e576200041d62000215565b5b6200042c84828501620003b4565b91505092915050565b5f82825260208201905092915050565b7f6f776e65727320726571756972656400000000000000000000000000000000005f82015250565b5f6200047b600f8362000435565b9150620004888262000445565b602082019050919050565b5f6020820190508181035f830152620004ac816200046d565b9050919050565b7f4e487b71000000000000000000000000000000000000000000000000000000005f52603260045260245ffd5b7f6f776e6572206e6f7420756e69717565000000000000000000000000000000005f82015250565b5f6200051660108362000435565b91506200052382620004e0565b602082019050919050565b5f6020820190508181035f830152620005478162000508565b9050919050565b7f4e487b71000000000000000000000000000000000000000000000000000000005f52601160045260245ffd5b5f819050919050565b5f62000590826200057b565b91507fffffffffffffffffffffffffffffffffffffffffffffffffffffffffffffffff8203620005c557620005c46200054e565b5b600182019050919050565b61263180620005de5f395ff3fe6080604052600436106100c1575f3560e01c806380f59a651161007e578063c01a8c8411610058578063c01a8c8414610282578063d0e30db0146102aa578063ee22610b146102b4578063fbac3951146102dc576100c1565b806380f59a65146101dd5780639ace38c214610219578063ad2bb1b31461025a576100c1565b8063025e7c27146100c55780630d59b56414610101578063173825d914610129578063186d9d88146101515780632f54bf6e146101795780637065cb48146101b5575b5f80fd5b3480156100d0575f80fd5b506100eb60048036038101906100e691906116d5565b610318565b6040516100f8919061173f565b60405180910390f35b34801561010c575f80fd5b50610127600480360381019061012291906118be565b610352565b005b348015610134575f80fd5b5061014f600480360381019061014a919061193e565b6105e4565b005b34801561015c575f80fd5b506101776004803603810190610172919061193e565b610984565b005b348015610184575f80fd5b5061019f600480360381019061019a919061193e565b610aed565b6040516101ac9190611983565b60405180910390f35b3480156101c0575f80fd5b506101db60048036038101906101d6919061193e565b610b0a565b005b3480156101e8575f80fd5b5061020360048036038101906101fe919061199c565b610da0565b6040516102109190611983565b60405180910390f35b348015610224575f80fd5b5061023f600480360381019061023a91906116d5565b610dca565b60405161025196959493929190611a63565b60405180910390f35b348015610265575f80fd5b50610280600480360381019061027b919061193e565b610ec2565b005b34801561028d575f80fd5b506102a860048036038101906102a391906116d5565b61102d565b005b6102b26112d1565b005b3480156102bf575f80fd5b506102da60048036038101906102d591906116d5565b6113ad565b005b3480156102e7575f80fd5b5061030260048036038101906102fd919061193e565b611674565b60405161030f9190611983565b60405180910390f35b5f8181548110610326575f80fd5b905f5260205f20015f915054906101000a900473ffffffffffffffffffffffffffffffffffffffff1681565b60015f3373ffffffffffffffffffffffffffffffffffffffff1673ffffffffffffffffffffffffffffffffffffffff1681526020019081526020015f205f9054906101000a900460ff166103db576040517f08c379a00000000000000000000000000000000000000000000000000000000081526004016103d290611b23565b60405180910390fd5b5f80549050811115610422576040517f08c379a000000000000000000000000000000000000000000000000000000000815260040161041990611bb1565b60405180910390fd5b5f8111610464576040517f08c379a000000000000000000000000000000000000000000000000000000000815260040161045b90611c3f565b60405180910390fd5b5f600480549050905060046040518060c001604052808773ffffffffffffffffffffffffffffffffffffffff1681526020018681526020018581526020015f151581526020015f815260200184815250908060018154018082558091505060019003905f5260205f2090600602015f909190919091505f820151815f015f6101000a81548173ffffffffffffffffffffffffffffffffffffffff021916908373ffffffffffffffffffffffffffffffffffffffff16021790555060208201518160010155604082015181600201908161053d9190611e57565b506060820151816003015f6101000a81548160ff0219169083151502179055506080820151816004015560a0820151816005015550508473ffffffffffffffffffffffffffffffffffffffff16813373ffffffffffffffffffffffffffffffffffffffff167fac8d3dc7760c97f73680644024f53b5129d6e052a3838e83a4e019708817200c8787876040516105d593929190611f26565b60405180910390a45050505050565b60015f3373ffffffffffffffffffffffffffffffffffffffff1673ffffffffffffffffffffffffffffffffffffffff1681526020019081526020015f205f9054906101000a900460ff1661066d576040517f08c379a000000000000000000000000000000000000000000000000000000000815260040161066490611b23565b60405180910390fd5b60015f8273ffffffffffffffffffffffffffffffffffffffff1673ffffffffffffffffffffffffffffffffffffffff1681526020019081526020015f205f9054906101000a900460ff166106f6576040517f08c379a00000000000000000000000000000000000000000000000000000000081526004016106ed90611b23565b60405180910390fd5b3373ffffffffffffffffffffffffffffffffffffffff168173ffffffffffffffffffffffffffffffffffffffff1603610764576040517f08c379a000000000000000000000000000000000000000000000000000000000815260040161075b90611fac565b60405180910390fd5b5f60015f8373ffffffffffffffffffffffffffffffffffffffff1673ffffffffffffffffffffffffffffffffffffffff1681526020019081526020015f205f6101000a81548160ff0219169083151502179055505f5b60015f805490506107cb9190611ff7565b8110156108fa578173ffffffffffffffffffffffffffffffffffffffff165f82815481106107fc576107fb61202a565b5b905f5260205f20015f9054906101000a900473ffffffffffffffffffffffffffffffffffffffff1673ffffffffffffffffffffffffffffffffffffffff16036108e7575f60015f805490506108519190611ff7565b815481106108625761086161202a565b5b905f5260205f20015f9054906101000a900473ffffffffffffffffffffffffffffffffffffffff165f828154811061089d5761089c61202a565b5b905f5260205f20015f6101000a81548173ffffffffffffffffffffffffffffffffffffffff021916908373ffffffffffffffffffffffffffffffffffffffff1602179055506108fa565b80806108f290612057565b9150506107ba565b505f80548061090c5761090b61209e565b5b600190038181905f5260205f20015f6101000a81549073ffffffffffffffffffffffffffffffffffffffff021916905590558073ffffffffffffffffffffffffffffffffffffffff167f8001553a916ef2f495d26a907cc54d96ed840d7bda71e73194bf5a9df7a76b9060405160405180910390a250565b60015f3373ffffffffffffffffffffffffffffffffffffffff1673ffffffffffffffffffffffffffffffffffffffff1681526020019081526020015f205f9054906101000a900460ff16610a0d576040517f08c379a0000000000000000000000000000000000000000000000000000000008152600401610a0490611b23565b60405180910390fd5b60025f8273ffffffffffffffffffffffffffffffffffffffff1673ffffffffffffffffffffffffffffffffffffffff1681526020019081526020015f205f9054906101000a900460ff16610a96576040517f08c379a0000000000000000000000000000000000000000000000000000000008152600401610a8d90612115565b60405180910390fd5b5f60025f8373ffffffffffffffffffffffffffffffffffffffff1673ffffffffffffffffffffffffffffffffffffffff1681526020019081526020015f205f6101000a81548160ff02191690831515021790555050565b6001602052805f5260405f205f915054906101000a900460ff1681565b60015f3373ffffffffffffffffffffffffffffffffffffffff1673ffffffffffffffffffffffffffffffffffffffff1681526020019081526020015f205f9054906101000a900460ff16610b93576040517f08c379a0000000000000000000000000000000000000000000000000000000008152600401610b8a90611b23565b60405180910390fd5b60015f8273ffffffffffffffffffffffffffffffffffffffff1673ffffffffffffffffffffffffffffffffffffffff1681526020019081526020015f205f9054906101000a900460ff1615610c1d576040517f08c379a0000000000000000000000000000000000000000000000000000000008152600401610c149061217d565b60405180910390fd5b60025f8273ffffffffffffffffffffffffffffffffffffffff1673ffffffffffffffffffffffffffffffffffffffff1681526020019081526020015f205f9054906101000a900460ff1615610ca7576040517f08c379a0000000000000000000000000000000000000000000000000000000008152600401610c9e906121e5565b60405180910390fd5b6001805f8373ffffffffffffffffffffffffffffffffffffffff1673ffffffffffffffffffffffffffffffffffffffff1681526020019081526020015f205f6101000a81548160ff0219169083151502179055505f81908060018154018082558091505060019003905f5260205f20015f9091909190916101000a81548173ffffffffffffffffffffffffffffffffffffffff021916908373ffffffffffffffffffffffffffffffffffffffff1602179055508073ffffffffffffffffffffffffffffffffffffffff167ff39e6e1eb0edcf53c221607b54b00cd28f3196fed0a24994dc308b8f611b682d60405160405180910390a250565b6003602052815f5260405f20602052805f5260405f205f915091509054906101000a900460ff1681565b60048181548110610dd9575f80fd5b905f5260205f2090600602015f91509050805f015f9054906101000a900473ffffffffffffffffffffffffffffffffffffffff1690806001015490806002018054610e2390611c8a565b80601f0160208091040260200160405190810160405280929190818152602001828054610e4f90611c8a565b8015610e9a5780601f10610e7157610100808354040283529160200191610e9a565b820191905f5260205f20905b815481529060010190602001808311610e7d57829003601f168201915b505050505090806003015f9054906101000a900460ff16908060040154908060050154905086565b60015f3373ffffffffffffffffffffffffffffffffffffffff1673ffffffffffffffffffffffffffffffffffffffff1681526020019081526020015f205f9054906101000a900460ff16610f4b576040517f08c379a0000000000000000000000000000000000000000000000000000000008152600401610f4290611b23565b60405180910390fd5b60025f8273ffffffffffffffffffffffffffffffffffffffff1673ffffffffffffffffffffffffffffffffffffffff1681526020019081526020015f205f9054906101000a900460ff1615610fd5576040517f08c379a0000000000000000000000000000000000000000000000000000000008152600401610fcc9061224d565b60405180910390fd5b600160025f8373ffffffffffffffffffffffffffffffffffffffff1673ffffffffffffffffffffffffffffffffffffffff1681526020019081526020015f205f6101000a81548160ff02191690831515021790555050565b60015f3373ffffffffffffffffffffffffffffffffffffffff1673ffffffffffffffffffffffffffffffffffffffff1681526020019081526020015f205f9054906101000a900460ff166110b6576040517f08c379a00000000000000000000000000000000000000000000000000000000081526004016110ad90611b23565b60405180910390fd5b60048054905081106110fd576040517f08c379a00000000000000000000000000000000000000000000000000000000081526004016110f4906122b5565b60405180910390fd5b5f600482815481106111125761111161202a565b5b905f5260205f209060060201905060035f8381526020019081526020015f205f3373ffffffffffffffffffffffffffffffffffffffff1673ffffffffffffffffffffffffffffffffffffffff1681526020019081526020015f205f9054906101000a900460ff16156111b9576040517f08c379a00000000000000000000000000000000000000000000000000000000081526004016111b09061231d565b60405180910390fd5b806003015f9054906101000a900460ff161561120a576040517f08c379a000000000000000000000000000000000000000000000000000000000815260040161120190612385565b60405180910390fd5b600160035f8481526020019081526020015f205f3373ffffffffffffffffffffffffffffffffffffffff1673ffffffffffffffffffffffffffffffffffffffff1681526020019081526020015f205f6101000a81548160ff0219169083151502179055506001816004015f82825461128291906123a3565b92505081905550813373ffffffffffffffffffffffffffffffffffffffff167f5cbe105e36805f7820e291f799d5794ff948af2a5f664e580382defb6339004160405160405180910390a35050565b60025f3373ffffffffffffffffffffffffffffffffffffffff1673ffffffffffffffffffffffffffffffffffffffff1681526020019081526020015f205f9054906101000a900460ff161561135b576040517f08c379a000000000000000000000000000000000000000000000000000000000815260040161135290612420565b60405180910390fd5b3373ffffffffffffffffffffffffffffffffffffffff167f90890809c654f11d6e72a28fa60149770a0d11ec6c92319d6ceb2bb0a4ea1a1534476040516113a392919061243e565b60405180910390a2565b60015f3373ffffffffffffffffffffffffffffffffffffffff1673ffffffffffffffffffffffffffffffffffffffff1681526020019081526020015f205f9054906101000a900460ff16611436576040517f08c379a000000000000000000000000000000000000000000000000000000000815260040161142d90611b23565b60405180910390fd5b600480549050811061147d576040517f08c379a0000000000000000000000000000000000000000000000000000000008152600401611474906122b5565b60405180910390fd5b5f600482815481106114925761149161202a565b5b905f5260205f20906006020190508060050154816004015410156114eb576040517f08c379a00000000000000000000000000000000000000000000000000000000081526004016114e2906124d5565b60405180910390fd5b806003015f9054906101000a900460ff161561153c576040517f08c379a000000000000000000000000000000000000000000000000000000000815260040161153390612385565b60405180910390fd5b6001816003015f6101000a81548160ff0219169083151502179055505f815f015f9054906101000a900473ffffffffffffffffffffffffffffffffffffffff1673ffffffffffffffffffffffffffffffffffffffff168260010154836002016040516115a8919061257d565b5f6040518083038185875af1925050503d805f81146115e2576040519150601f19603f3d011682016040523d82523d5f602084013e6115e7565b606091505b505090508061162b576040517f08c379a0000000000000000000000000000000000000000000000000000000008152600401611622906125dd565b60405180910390fd5b823373ffffffffffffffffffffffffffffffffffffffff167f5445f318f4f5fcfb66592e68e0cc5822aa15664039bd5f0ffde24c5a8142b1ac60405160405180910390a3505050565b6002602052805f5260405f205f915054906101000a900460ff1681565b5f604051905090565b5f80fd5b5f80fd5b5f819050919050565b6116b4816116a2565b81146116be575f80fd5b50565b5f813590506116cf816116ab565b92915050565b5f602082840312156116ea576116e961169a565b5b5f6116f7848285016116c1565b91505092915050565b5f73ffffffffffffffffffffffffffffffffffffffff82169050919050565b5f61172982611700565b9050919050565b6117398161171f565b82525050565b5f6020820190506117525f830184611730565b92915050565b6117618161171f565b811461176b575f80fd5b50565b5f8135905061177c81611758565b92915050565b5f80fd5b5f80fd5b5f601f19601f8301169050919050565b7f4e487b71000000000000000000000000000000000000000000000000000000005f52604160045260245ffd5b6117d08261178a565b810181811067ffffffffffffffff821117156117ef576117ee61179a565b5b80604052505050565b5f611801611691565b905061180d82826117c7565b919050565b5f67ffffffffffffffff82111561182c5761182b61179a565b5b6118358261178a565b9050602081019050919050565b828183375f83830152505050565b5f61186261185d84611812565b6117f8565b90508281526020810184848401111561187e5761187d611786565b5b611889848285611842565b509392505050565b5f82601f8301126118a5576118a4611782565b5b81356118b5848260208601611850565b91505092915050565b5f805f80608085870312156118d6576118d561169a565b5b5f6118e38782880161176e565b94505060206118f4878288016116c1565b935050604085013567ffffffffffffffff8111156119155761191461169e565b5b61192187828801611891565b9250506060611932878288016116c1565b91505092959194509250565b5f602082840312156119535761195261169a565b5b5f6119608482850161176e565b91505092915050565b5f8115159050919050565b61197d81611969565b82525050565b5f6020820190506119965f830184611974565b92915050565b5f80604083850312156119b2576119b161169a565b5b5f6119bf858286016116c1565b92505060206119d08582860161176e565b9150509250929050565b6119e3816116a2565b82525050565b5f81519050919050565b5f82825260208201905092915050565b5f5b83811015611a20578082015181840152602081019050611a05565b5f8484015250505050565b5f611a35826119e9565b611a3f81856119f3565b9350611a4f818560208601611a03565b611a588161178a565b840191505092915050565b5f60c082019050611a765f830189611730565b611a8360208301886119da565b8181036040830152611a958187611a2b565b9050611aa46060830186611974565b611ab160808301856119da565b611abe60a08301846119da565b979650505050505050565b5f82825260208201905092915050565b7f6e6f7420616e206f776e657200000000000000000000000000000000000000005f82015250565b5f611b0d600c83611ac9565b9150611b1882611ad9565b602082019050919050565b5f6020820190508181035f830152611b3a81611b01565b9050919050565b7f526571756972656420636f6e6669726d6174696f6e732065786365656473206e5f8201527f756d626572206f66206f776e6572730000000000000000000000000000000000602082015250565b5f611b9b602f83611ac9565b9150611ba682611b41565b604082019050919050565b5f6020820190508181035f830152611bc881611b8f565b9050919050565b7f4174206c65617374206f6e6520636f6e6669726d6174696f6e207265717569725f8201527f6564000000000000000000000000000000000000000000000000000000000000602082015250565b5f611c29602283611ac9565b9150611c3482611bcf565b604082019050919050565b5f6020820190508181035f830152611c5681611c1d565b9050919050565b7f4e487b71000000000000000000000000000000000000000000000000000000005f52602260045260245ffd5b5f6002820490506001821680611ca157607f821691505b602082108103611cb457611cb3611c5d565b5b50919050565b5f819050815f5260205f209050919050565b5f6020601f8301049050919050565b5f82821b905092915050565b5f60088302611d167fffffffffffffffffffffffffffffffffffffffffffffffffffffffffffffffff82611cdb565b611d208683611cdb565b95508019841693508086168417925050509392505050565b5f819050919050565b5f611d5b611d56611d51846116a2565b611d38565b6116a2565b9050919050565b5f819050919050565b611d7483611d41565b611d88611d8082611d62565b848454611ce7565b825550505050565b5f90565b611d9c611d90565b611da7818484611d6b565b505050565b5b81811015611dca57611dbf5f82611d94565b600181019050611dad565b5050565b601f821115611e0f57611de081611cba565b611de984611ccc565b81016020851015611df8578190505b611e0c611e0485611ccc565b830182611dac565b50505b505050565b5f82821c905092915050565b5f611e2f5f1984600802611e14565b1980831691505092915050565b5f611e478383611e20565b9150826002028217905092915050565b611e60826119e9565b67ffffffffffffffff811115611e7957611e7861179a565b5b611e838254611c8a565b611e8e828285611dce565b5f60209050601f831160018114611ebf575f8415611ead578287015190505b611eb78582611e3c565b865550611f1e565b601f198416611ecd86611cba565b5f5b82811015611ef457848901518255600182019150602085019450602081019050611ecf565b86831015611f115784890151611f0d601f891682611e20565b8355505b6001600288020188555050505b505050505050565b5f606082019050611f395f8301866119da565b8181036020830152611f4b8185611a2b565b9050611f5a60408301846119da565b949350505050565b7f6f776e65722063616e6e6f742072656d6f76652073656c6600000000000000005f82015250565b5f611f96601883611ac9565b9150611fa182611f62565b602082019050919050565b5f6020820190508181035f830152611fc381611f8a565b9050919050565b7f4e487b71000000000000000000000000000000000000000000000000000000005f52601160045260245ffd5b5f612001826116a2565b915061200c836116a2565b925082820390508181111561202457612023611fca565b5b92915050565b7f4e487b71000000000000000000000000000000000000000000000000000000005f52603260045260245ffd5b5f612061826116a2565b91507fffffffffffffffffffffffffffffffffffffffffffffffffffffffffffffffff820361209357612092611fca565b5b600182019050919050565b7f4e487b71000000000000000000000000000000000000000000000000000000005f52603160045260245ffd5b7f61646472657373206973206e6f7420626c6f636b6564000000000000000000005f82015250565b5f6120ff601683611ac9565b915061210a826120cb565b602082019050919050565b5f6020820190508181035f83015261212c816120f3565b9050919050565b7f6f776e65722065786973747300000000000000000000000000000000000000005f82015250565b5f612167600c83611ac9565b915061217282612133565b602082019050919050565b5f6020820190508181035f8301526121948161215b565b9050919050565b7f626c6f636b6564206f776e65722063616e6e6f742062652061646465640000005f82015250565b5f6121cf601d83611ac9565b91506121da8261219b565b602082019050919050565b5f6020820190508181035f8301526121fc816121c3565b9050919050565b7f6164647265737320616c726561647920626c6f636b65640000000000000000005f82015250565b5f612237601783611ac9565b915061224282612203565b602082019050919050565b5f6020820190508181035f8301526122648161222b565b9050919050565b7f7472616e73616374696f6e20646f6573206e6f742065786973740000000000005f82015250565b5f61229f601a83611ac9565b91506122aa8261226b565b602082019050919050565b5f6020820190508181035f8301526122cc81612293565b9050919050565b7f7472616e73616374696f6e20616c726561647920636f6e6669726d65640000005f82015250565b5f612307601d83611ac9565b9150612312826122d3565b602082019050919050565b5f6020820190508181035f830152612334816122fb565b9050919050565b7f7472616e73616374696f6e20616c7265616479206578656375746564000000005f82015250565b5f61236f601c83611ac9565b915061237a8261233b565b602082019050919050565b5f6020820190508181035f83015261239c81612363565b9050919050565b5f6123ad826116a2565b91506123b8836116a2565b92508282019050808211156123d0576123cf611fca565b5b92915050565b7f426c6f636b65642073656e6465722063616e6e6f74206465706f7369740000005f82015250565b5f61240a601d83611ac9565b9150612415826123d6565b602082019050919050565b5f6020820190508181035f830152612437816123fe565b9050919050565b5f6040820190506124515f8301856119da565b61245e60208301846119da565b9392505050565b7f63616e206e6f7420657865637574652074686973207472616e73616374696f6e5f8201527f2079657400000000000000000000000000000000000000000000000000000000602082015250565b5f6124bf602483611ac9565b91506124ca82612465565b604082019050919050565b5f6020820190508181035f8301526124ec816124b3565b9050919050565b5f81905092915050565b5f815461250981611c8a565b61251381866124f3565b9450600182165f811461252d576001811461254257612574565b60ff1983168652811515820286019350612574565b61254b85611cba565b5f5b8381101561256c5781548189015260018201915060208101905061254d565b838801955050505b50505092915050565b5f61258882846124fd565b915081905092915050565b7f7472616e73616374696f6e206661696c656400000000000000000000000000005f82015250565b5f6125c7601283611ac9565b91506125d282612593565b602082019050919050565b5f6020820190508181035f8301526125f4816125bb565b905091905056fea2646970667358221220f58b39cc9c5bd471e145dec83594e80681a3027fa132619f0b727dc02677f3fb64736f6c63430008140033",
  "immutableReferences": {},
  "source": "// SPDX-License-Identifier: MIT\npragma solidity ^0.8.20;\n\ncontract MultiSigWallet {\n\n    event Deposit(address indexed sender, uint amount, uint balance);\n    event SubmitTransaction(\n        address indexed sender,\n        uint indexed txIndex,\n        address indexed target,\n        uint value,\n        bytes data,\n        uint numConfirmationsRequired\n    );\n    event ConfirmTransaction(address indexed sender, uint indexed txIndex);\n    event ExecuteTransaction(address indexed sender, uint indexed txIndex);\n    event OwnerAddition(address indexed newOwner);\n    event OwnerRemoval(address indexed removedOwner);\n\n    address[] public owners;\n    mapping(address => bool) public isOwner;\n    mapping(address => bool) public isBlocked;\n\n    struct Transaction {\n        address target;\n        uint value;\n        bytes data;\n        bool executed;\n        uint numConfirmations;\n        uint numConfirmationsRequired;\n    }\n\n    mapping(uint => mapping(address => bool)) public isConfirmed;\n    Transaction[] public transactions;\n\n    constructor(address[] memory _owners) {\n        require(_owners.length > 0, \"owners required\");\n\n        for (uint i = 0; i < _owners.length; i++) {\n            address owner = _owners[i];\n            require(!isOwner[owner], \"owner not unique\");\n\n            isOwner[owner] = true;\n            owners.push(owner);\n        } \n    }\n\n\n    function deposit() payable external {\n        require(!isBlocked[msg.sender], \"Blocked sender cannot deposit\");\n        emit Deposit(msg.sender, msg.value, address(this).balance);\n    }\n\n    function submitTransaction(\n        address _target,\n        uint _value,\n        bytes memory _data,\n        uint _numConfirmationsRequired\n    )\n        external\n        onlyOwner\n    {\n        require(_numConfirmationsRequired <= owners.length, \"Required confirmations exceeds number of owners\");\n        require(_numConfirmationsRequired > 0, \"At least one confirmation required\");\n\n        uint txIndex = transactions.length;\n\n        transactions.push(Transaction({\n            target: _target,\n            value: _value,\n            data: _data,\n            executed: false,\n            numConfirmations: 0,\n            numConfirmationsRequired: _numConfirmationsRequired\n        }));\n\n        emit SubmitTransaction(msg.sender, txIndex, _target, _value, _data, _numConfirmationsRequired);\n    }\n\n    function confirmTransaction(uint _txIndex) public onlyOwner {\n        require(_txIndex < transactions.length, \"transaction does not exist\");\n\n        Transaction storage transaction = transactions[_txIndex];\n\n        require(!isConfirmed[_txIndex][msg.sender], \"transaction already confirmed\");\n        require(!transaction.executed, \"transaction already executed\");\n\n        isConfirmed[_txIndex][msg.sender] = true;\n        transaction.numConfirmations += 1;\n\n        emit ConfirmTransaction(msg.sender, _txIndex);\n    }\n\n    function executeTransaction(uint _txIndex) public onlyOwner {\n        require(_txIndex < transactions.length, \"transaction does not exist\");\n\n        Transaction storage transaction = transactions[_txIndex];\n\n        require(transaction.numConfirmations >= transaction.numConfirmationsRequired, \"can not execute this transaction yet\");\n        require(!transaction.executed, \"transaction already executed\");\n\n        transaction.executed = true;\n\n        (bool success, ) = transaction.target.call{value: transaction.value}(transaction.data);\n        require(success, \"transaction failed\");\n\n        emit ExecuteTransaction(msg.sender, _txIndex);\n    }\n\n    function addOwner(address _owner) external onlyOwner {\n        require(!isOwner[_owner], \"owner exists\");\n        require(!isBlocked[_owner], \"blocked owner cannot be added\");\n\n        isOwner[_owner] = true;\n        owners.push(_owner);\n\n        emit OwnerAddition(_owner);\n    }\n\n    function removeOwner(address _owner) external onlyOwner {\n        require(isOwner[_owner], \"not an owner\");\n        require(_owner != msg.sender, \"owner cannot remove self\");\n\n        isOwner[_owner] = false;\n\n        for (uint i = 0; i < owners.length - 1; i++) {\n            if (owners[i] == _owner) {\n                owners[i] = owners[owners.length - 1];\n                break;\n            }\n        }\n        owners.pop();\n\n        emit OwnerRemoval(_owner);\n    }\n\n    function blockAddress(address _address) external onlyOwner {\n        require(!isBlocked[_address], \"address already blocked\");\n\n        isBlocked[_address] = true;\n    }\n\n    function unblockAddress(address _address) external onlyOwner {\n        require(isBlocked[_address], \"address is not blocked\");\n\n        isBlocked[_address] = false;\n    }\n\n    modifier onlyOwner() {\n        require(isOwner[msg.sender], \"not an owner\");\n        _;\n    }\n}\n",
  "sourcePath": "/Users/vramesh/GitHub/Capsule-Interview-Project/contracts/MultiSigWallet.sol",
  "compiler": {
    "name": "solc",
    "version": "0.8.20+commit.a1b79de6.Emscripten.clang"
  },
  "schemaVersion": "3.4.14",
  "updatedAt": "2023-05-31T19:31:23.210Z",
  "devdoc": {
    "kind": "dev",
    "methods": {},
    "version": 1
  },
  "userdoc": {
    "kind": "user",
    "methods": {},
    "version": 1
  }
}